:400000000040002011000000790300007903000010B500F0B9F9C04670B51222264B1A6000F0AAFA254800F043FF012000F0C4FA302000F0F3F9224A224B1A60224C802512
:40004000ED052560214A116802230B431360204A204B1A600022204B1A60204A136808218B431360FA20C00000F052FA1C4800F045FA1C4A1C4B1A601C4B1D4A1A60BB2186
:4000800009021C4A11601C4A1A60802212061B4B1A608022D2021A4B1A604122194B1A60013A194B1A601949082000F0FDF9082000F0EEF9256070BD30001040001BB700C2
:4000C0000600008004010B400C020B4078002E402D3E00007C002E4064F02E406CF02E40DC050000007FBB00040301400000014041FF00800003014040FF008008010B404F
:4001000000010B403801014030010140D106000010B572B60022284B1A6000240FE027486200131959000B00411889881A5AC31858880004104300F019F90134E4B2012C56
:40014000EDD91E490C311E48243000F0E5F81D4A1D4B1A60C02292051C4B1A6099231B041B4A1360802189021A4A11601A4A13608022D205194B1A6019490B783C229343F0
:4001800014221343DBB20B70164A117816230B43DBB213700122144B1A60144A144B1A608022144B1A60C0221204134B1A60FFF733FF00F0CBF810BD6CF02E404C2D0100C1
:4001C0004C2E0100030000EE000002400003024000500F4008500F4030500F4038500F4001700F4000700F40000004400600D80008000440000304400803044010B5064C86
:400200002378002B07D1054B002B02D0044800E000BF0123237010BD3010002000000000482D0100084B10B5002B03D00749084800E000BF07480368002B00D110BD064B65
:40024000002BFBD09847F9E70000000034100020482D0100A00B00200000000010B5044B1B78022B02D0002000F0C2FD10BDC0469621002010B50C00282808D002D8012809
:4002800005D02FE041280ED04C2815D02AE0002000F0E6FA00F05EFD012000F06BFD0020FFF7DCFF1EE00020FFF7D8FF00F0F0FC002000F05FFD15E08B89122B12D1081D8A
:4002C0002E33094A00210DF003FE00280AD16368187800F08DFD044A13785078000218430CF0E2FF10BDC0469C21002010B562B6084800F05DFAFF2000F048FD00F0C6FD4D
:40030000FF2000F051FD01F001F9032001F0F6F8F9E7C04675020000F0B50025002711E0BB00C658F3B2FF22964308E06A008A181478A419527822700135013BDBB2002BF9
:40034000F4D10137062FEBD9F0BDC0460323044A1360044A13600022034B1A607047C0463000304030003140000E3F4010B50A00002101F08BF810BD10B501F043F803682A
:400380000C2B00D1FEE7FEE770B50F4E0F4D13E029686B68AC68002202E001C901C30432A242FAD1E868002202E0002102C304328242FAD11035013E002EE9D101F028F82F
:4003C000FFF794FFFEE7C046010000009830010010B50E4A136801218B43136000230AE0032B03D89A000A49505800E009489900094A885001332F2BF2D9FFF789FE034A01
:40040000116801230B43136010BDC0460000104000000000790300000000002010B586B0040000F04EFD0E4B1B6800930D4B1B680193033C0C4B1B5D02930C4B1B68039374
:4004400004AA0B4B04936B4605930A4B1A600A490A4A11601B6800F038FD06B010BDC04608010B4000010B408C2E010030001040B6EA0000080010401700008004001040C2
:40048000024B1B68012018407047C0460C002E401F2318401E3B8340014A13607047C04600E100E001BE704770B504000D001F2802D90020FFF7F6FF1034A40080239B05C6
:4004C0009C4664442068256070BDC04610B5040006E0084B586800F0EBFC074B9C46644480231B029C42F4D8024B9868604300F0DFFC10BDA40B00200080FFFF10B5034B6B
:400500001B7B584300F0D4FC10BDC046A40B002010B504000F4A116801230B4313600E4A0E4B1A600E4A1368802109020B431360002809D100200CE00120FFF7DFFFFFF744
:400540009FFF002804D1013C002CF5D1102000E0002010BD60F02E400220000078002E4010002E40034B1868C0231B02184000D00120704700010B4010B50D4B1A68012195
:400580008A431A601A68022082431A60094A10683024A043203C204310601068093CA043014311601A68802109060A431A6010BD00F02E4000FF2E4070B51D4B1B680124C5
:4005C0001C40002802D0012816D02BE0184B19680122914319601968022081431960154B19682E3081432038014319601968093881430A431A6018E00D4B1A6802218A4330
:400600001A600C4A10680725A84301431160116830208143103801431160196801220A431A6002E00020FFF73DFF200070BDC04600F02E4000FF2E4010B500F042FC044A1E
:400640001368C02109020B43136000F03EFC10BD00010B4010B500F034FC08490A68084B1A408024E40122430A600A6813408022120213430B6000F028FC10BD00010B40F9
:40068000FF3FFFFF70B5050000F01BFC0400FFF769FF002803D0FFF7DDFF012100E0002108482840084A1568084B2B40184310601368012901D1FFF7BFFF200000F005FC2F
:4006C00070BDC0460404040010020B40FBFBFBFF10B5244B1B685B0715D5234B5B685B070ED5224B596A042001401F4C62688A4362605A6A82435A629B69002B00D0984779
:400700000420FFF7BFFF174B1B685B0518D5164B5B685B0510D5154B596A8022D2001140114842688A434260596A114A0A405A62DB69002B00D098478020C000FFF7A2FFB3
:40074000084B1B685B030CD5074B5B685B0304D5064B1B6A002B00D098478020C002FFF791FF10BD10020B40B80B00204C100020FFFBFFFF10B500F07FFA10BD10B500241B
:40078000064B1C70064B1C70064B1C70FFF7F2FF054B1C70054B1C7010BDC0469F210020982100209E210020882100209021002010B590B00400142220490BA800F05DFE58
:4007C00020231F4AD35C002B05D1FFF7D7FF012120231B4AD154002C2DD01A4B1C6008A805AA426006AB0893002101811B311980598017391971002313701231694400F04A
:4008000061FF002818D1104B0293104B0193052300930BABAE2212010D490E4800F0A8FE002809D101220C4B1A700F3213210B480DF036FB00E0012010B010BDBC2E01005D
:40084000741000208C2100207902000000390100C0000020BD09000096210020D02E010010B502282FD81C4B1B78042B2DD11B4B1B785B072CD4002809D1194B00221A8636
:400880002032596A0A805B6A10325A800CE001280AD1134B96221A86C822D200596A0A805B6A8022D2015A800E4B18700C4820300BF02CFB00280DD1084A117804230B43F8
:4008C000DBB2137006E0012004E00420FF3001E00420FF3010BDC046962100209F210020C00B00209E2100207047C04603784078000218437047C04670B5050083890F2BA8
:400900001FD1043031332A0000210DF0E1FA041E11D16868FFF7EAFF830706D50A4B1B68290082204000984705E0074B1B6829000620FF309847054A137801218B431370CE
:4009400000E00024200070BD8C2100209F210020024B00225A701A707047C0469C21002010B582B00400FFF7C7FF0A4B1B78DB070ED4002809D001A912238B70A3890B8027
:40098000C87020680CF00EFC02E020680CF08CFC02B010BD9F2100208379002B07D000200BE0C25C002A07D10133DBB200E00023052BF6D9002000E001207047F0B583B088
:4009C00004000D009A4A117801230B43DBB21370272800D1C1E012D8062800D185E004D8012821D005287CD010E1242800D1B0E0262800D1B9E0212800D007E189E042284F
:400A000000D1EFE006D8282800D1AAE0412800D1D3E0FBE04C2800D1EFE0FA2800D1F0E0432800D0F2E0E0E001AE0727377000237370300002F0B6FD3770012373703000E4
:400A400002F0B0FD00F056FD7A4B1E683000FFF7A3FF00280CD0300000F05CFD754E00213068FFF741FF30680121FFF73DFF2AE0714B1F78714B18788001FC2636010200E1
:400A800032403F21394011436D4B1B781B03F8225202134019436B4B1B785B04FE22120413400B43684E33701A0A72701B0CB370300000F02FFD00213000FFF715FF012120
:400AC0003000FFF711FF00200BF0B4F801A83F230370002343700BF0CBF804225B4B1A7094E02A785A4B1A7090E02B78002B00D08CE06B78002B06D1564B0022DA809A80B6
:400B0000554A1A606B604A4A137801218B4313707CE0474B1B789B0678D4504B1B78102B02D105224D4BDA704D4B18784B490BF0ABF901AB1880002804D04A4B1B6801A92F
:400B4000362098473A4A117801230B43DBB213705CE06A78444B1A7058E002223B4B1A7054E00422394B1A7050E0384B1B78022B4CD02F4A1278D20748D52D4A12785207C4
:400B800008D50322314B1A70294A137804218B4313703BE0264A1278120708D504222B4B1A70234A137808218B4313702EE0032B2CD10422254B1A7028E0294E02222900F1
:400BC000300000F05AFC0022214B1A7031783D31FF314900254B591801310232244800F04CFC13E0FFF7B4FE10E06988162900D9172128880CF0E0FA08E02800FFF7B0FEE6
:400C000004E01C4A117801230B431370084B1A7811231A4209D0064A137801218B431370104B1B6829002000984703B0F0BDC0469F210020F40B00207CF1FF0F7DF1FF0FEE
:400C40007BF1FF0F78F1FF0FF80B0020962100209821002098100020A00B0020A40C00209C2100208C210020902100200039010094210020882100207047C046034A117867
:400C800080235B420B43DBB21370704773000F40024A11787F230B401370704773000F40014B18707047C04603000F40014B18707047C04643000F40014B18707047C046C8
:400CC00023000F40014B18707047C04683000F40014B1878C0B2704763000F40014B1878C0B2704753000F4010B501E0FFF7F6FFFFF7EEFFC306F9D410BDC04610B51349C3
:400D00000B783F22934309221343DBB20B70104C227801231343DBB22370FF20FFF7C0FFFF20FFF7C3FF7F20FFF7C6FF0020FFF7C9FF00F0C6F8227810231343DBB223700C
:400D400000F0C3F8FFF7D0FF10BDC04673000F4093000F4010B5064B1B78002B04D1FFF7CDFF0122024B1A70FFF788FF10BDC046A010002004490A687F231A40C301D8B2FE
:400D8000104308607047C04600030440044B1B68002BFBDB0002034B1843014B186070470000014041000080044B1B68002BFBDB0002034B1843014B18607047000001403F
:400DC00040000080034A117880235B420B43DBB21370704772000F40014B18707047C04602000F40014B18707047C04642000F40014B18707047C04622000F40014B18706D
:400E00007047C04682000F40014B1878C0B2704762000F40014B1878C0B2704752000F4010B501E0FFF7F6FFFFF7EEFFC306F9D410BDC04610B513490B783F2293430922E5
:400E40001343DBB20B70104C227801231343DBB22370FF20FFF7C0FFFF20FFF7C3FF0020FFF7C6FF0020FFF7C9FF00F02AF8227810231343DBB2237000F027F8FFF7D0FFF7
:400E800010BDC04672000F4092000F4010B5064B1B78002B04D1FFF7CDFF0122024B1A70FFF790FF10BDC046A1100020000000000230800803D00138FDD1C046C046C04689
:400EC0007047EFF3108072B6704780F31088704710B5FFF7F6FF044A136804218B43136030BFFFF7F2FF10BD10ED00E00160704701607047324B1A781202324B1B781A4309
:400F0000314B1B781B02314909780B4330498B4201D1072A06D0D42109018B4206D1042A04D102E02B4B042200E02A4B2A490B602A4B1A602A4B1B781B022A4A127813435E
:400F400080229201934202D0002B02D002E0264B00E0254B254A1360254B1B781B02254A12781343244A934205D0244A934204D0052B05D103E0224B02E0214B00E0204B86
:400F8000204A1360204B1B681B09204A1268AA2A15D1012B13D9164B1B780E2B0FD11C4B1B781B021B4A127813431B4A13601B4B1B781B021A4A127813431A4A1360704763
:400FC000D9F0FF0FD8F0FF0FDFF0FF0FDEF0FF0F580B0000580D00006C002E4074002E40DBF0FF0FDAF0FF0F0220000078002E40DDF0FF0FDCF0FF0F0F0F00000505000071
:40100000050F000080002E40EC0F00F0E00F00F06DF2FF0F6CF2FF0F84002E406FF2FF0F6EF2FF0F94002E4010B5FFF767FA10BD10B5FFF74BFA10BD10B500F04BF810BDBF
:4010400010B500F04FF810BD10B500F04BF8034800F02AF8032000F02DF810BD1111000010B5024800F046F810BDC046111100000220FF307047C0462B2070472B207047E7
:401080002B2070472B2070472B2070472B2070472B2070472B2070472B2070472B2070472B2070477047C046014B18677047C0460000002010B50400FFF703FF044A13682F
:4010C000C0218B43A4011C431460FFF7FEFE10BD0CE400E080225201014B1A607047C04600E100E080225201014B1A607047C04680E100E010B50400FFF7F4FF2000FFF780
:40110000D3FF0320FFF7D6FFFFF7E4FF10BDC04610B511F005FE10BD002243088B4274D303098B425FD3030A8B4244D3030B8B4228D3030C8B420DD3FF22090212BA030C97
:401140008B4202D31212090265D0030B8B4219D300E0090AC30B8B4201D3CB03C01A5241830B8B4201D38B03C01A5241430B8B4201D34B03C01A5241030B8B4201D30B0374
:40118000C01A5241C30A8B4201D3CB02C01A5241830A8B4201D38B02C01A5241430A8B4201D34B02C01A5241030A8B4201D30B02C01A5241CDD2C3098B4201D3CB01C01A70
:4011C000524183098B4201D38B01C01A524143098B4201D34B01C01A524103098B4201D30B01C01A5241C3088B4201D3CB00C01A524183088B4201D38B00C01A5241430857
:401200008B4201D34B00C01A5241411A00D20146524110467047FFE701B5002000F0F0F802BDC0460029F7D076E7704703460B437FD4002243088B4274D303098B425FD36E
:40124000030A8B4244D3030B8B4228D3030C8B420DD3FF22090212BA030C8B4202D31212090265D0030B8B4219D300E0090AC30B8B4201D3CB03C01A5241830B8B4201D34B
:401280008B03C01A5241430B8B4201D34B03C01A5241030B8B4201D30B03C01A5241C30A8B4201D3CB02C01A5241830A8B4201D38B02C01A5241430A8B4201D34B02C01A7A
:4012C0005241030A8B4201D30B02C01A5241CDD2C3098B4201D3CB01C01A524183098B4201D38B01C01A524143098B4201D34B01C01A524103098B4201D30B01C01A5241FC
:40130000C3088B4201D3CB00C01A524183088B4201D38B00C01A524143088B4201D34B00C01A5241411A00D201465241104670475DE0CA0F00D04942031000D340425340C1
:4013400000229C4603098B422DD3030A8B4212D3FC22890112BA030A8B420CD3890192118B4208D3890192118B4204D389013AD0921100E08909C3098B4201D3CB01C01A42
:40138000524183098B4201D38B01C01A524143098B4201D34B01C01A524103098B4201D30B01C01A5241C3088B4201D3CB00C01A524183088B4201D38B00C01A5241D9D235
:4013C00043088B4201D34B00C01A5241411A00D20146634652415B10104601D34042002B00D54942704763465B1000D3404201B5002000F005F802BD0029F8D016E77047B0
:401400007047C046014B18687047C0462C1000200E4B70B500251E000D4CE41AA410A54204D0AB00F35898470135F8E711F022FE084B00251E00084CE41AA410A54204D021
:40144000AB00F35898470135F8E770BD8030010080300100803001008830010030B50024A24208D0035D651C0C5DA34201D0181B02E02C00F4E7002030BD002310B59A42D7
:4014800003D0CC5CC4540133F9E710BD03008218934202D019700133FAE77047134A1088810703D08107890F401A001D11791030484381B25088820703D08207920F801A38
:4014C000001D800040180A494030098980B2CA0701D0503080B2890706D504495422091F09785143081880B270470000B00C0020B010002010B501F057FF10BD10B501F05D
:4015000059FF10BD10B501F06BFF10BD10B500F055FA10BD10B50749044609780220002907D1204601F0B4FF002802D120460AF091FC10BD4C0E002070B504460120002CD0
:4015400012D02368002B0FD0616800290CD0074D06222889208118462968FFF78EFF6968606809780170002070BD0000B0100020FFB585B0002768460E9D07734F481C4652
:401580000078002802D0082009B0F0BD10990F9801900095029105A807C800F001F90028F2D16946264603AB84460873002C19D0002115E08A00B75A082F09D99019807843
:4015C000002805D0083FB7521878401C187005E0002914D00027B75290198770491CC9B2A942E7D360460028CED10F98002809D0109901F089FA002804D00120C4E70120C8
:401600008446EFE701F0ECFE2D480021416081600599016021888180022D07D3A1798171A17AC171A1890181218A418100211EE0481C19E082008B00A75AE65ABE46BE4225
:4016400011D26F463E80B4461E190296B678BE7001967646E6521719029EBB78B3706646A652019EBE70401CA842E3D3491CA942DED3134822460C3000906846037B079975
:40168000069800F015F90028B8D168460B4C007B60700B480C3001F0D3FE0028AED1084907480C3107F076FC0028A7D107F090FC0028A3D10121217066E70000AA0C0020BA
:4016C000A4100020F8B5054633480E460078002802D002242046F8BD002E5BD000242F49002D16D02A89D0070DD02868002808D003881B3BE12B04D24088FB2801D81B28D3
:4017000001D2012409E0900707D56868002804D1F7E70020088108604860002CDAD11F482F8907811C481B21801D018041800421017119490020891C0870F80705D016488C
:401740000622801D2968FFF798FE1449B80703D56A681148127882700F480D46801D0860001F486001F0BAFE0B48801D01F0A8FE28890DF0A1FC28890DF008FE03461033BB
:40178000FFF78CFE1F21C018890140180249308088809FE701249DE7AA0C0020B0100020FFB58446384F1C460020BB883F78054602460646002F11D100290ED002999942D9
:4017C0000BD36146002908D0002C06D00A99002906D02E4B0B99994202D2012004B0F0BD002144E0AB001F19BF78002F3BD0E35A002B38D07B43591889B22B0000F04AF8A1
:40180000050410161C253100A7782388BC46FF27233BEB37BB4222D26346032B1FD322E0A388002B1FD0302B19D31CE02389002B19D0282B13D316E0A289002A13D01346D1
:40184000134F233BBB420AD20DE0268A002A0AD033460F4F233BBB4201D2964203D901200EE0002001E000280AD16D1CEDB2099B9D42B7D31C2463435B1802998B42ACD8E8
:401880009642AAD8AAE70000AA0C002079020000BAFF000030B47446641E2578641CAB4200D21D46635D5B00E31830BC18470000FFB583B0002469460C801F4606468C8070
:4018C000002806D00598002803D004983043800701D0012466E0002FFBD03449049809888842F6D3FFF7BCFBFFF7AAFB00F012FC002855D100F07AFD002851D12C49084641
:4019000001F036F905042D0C4AD12A480499066081800021C18007810C98007AC00704D0684601F076FD040007D10C98007A800703D501A801F076FD0446BF1DFEB2002C97
:4019400020D13146059800F05DF804001AD10DF02BFD040016D16A461088928808368518144AF1B29088D288AEB29319984207D3401B801A80B201F0EBFB050007D000E0F4
:40198000FF25012400F05EFA002D04D008E0F8B200F01CF9F6E700F081FA07490120087000F0CAFB204607B0F0BD0000AE0C0020F11A0000BC100020B60C002010B503488B
:4019C0000078012801D101F065FA10BDB60C002070B5084B0446DA889E8800205518B54206D81D68AA182260DA885118D98070BD032070BDBC1000200148008970470000EA
:401A0000BC100020F0B587B007460D4600208900009006916846FFF7DBFF844600285DD1304800990160002117E02E4B88001A680629115406D22C4C041966788218567084
:401A4000628805E0C419203CA67A8218567022891B68C018491C4280C9B2A942E5D300242DE0601CC2B2059025E01E4FA30039689600581840887118039604904E88B042DB
:401A800017D938466F46FE80B6464F786E4677710297049F4F800168039F5E18767879184E700168764659184E800068029F18184770521CD2B2AA42D7D30598C4B2AC4280
:401AC000CFD36046002809D168460699FFF780FF8446002802D1054900980860604607B0F0BD0000B80C0020A8300100BC0C00207047000010B5002809D005494A68002A71
:401B000005D0011F08788000105801F0CFFA10BDB80C002010B50446FFF76EFFC0B2801DA0420CD307484068002808D0A100405801F02EFA002801D00470001D10BD0020DB
:401B400010BD0000B80C0020F8B516460D460446FFF752FFC0B2801DA04203D20020C0430090F8BDB2B2E9B2684601F037FA0099481C03D0024AA000526811500098F8BDA6
:401B8000B80C0020F8B50746FFF736FF801DC6B20A49002005460C680DE06178002907D06188B94202D32078FFF7B4FF002804D1241D6D1CEDB2B542EFD3F8BDB80C00205D
:401BC00010B5002801D0FFF795FF10BD70B506460948002504680BE06178002905D062882078121D0023FFF7AFFF241D6D1CEDB2B542F1D370BD0000B80C0020FFB581B029
:401C00000A9F16000C4620D000F0F2F8054604281BD0002F0CD03846FFF7B4FF20492A0151184860002810D03A460499FFF725FC1B4928010E5046187781019805702004E1
:401C400006D47D20C000444304E0FF2005B0F0BD6404640C00F0BAF80746042807D000F04FFAA0420BD800F04BFA201A03E0204600F0AAFA0020F06035720020E6E700F039
:401C80003FFA009000F0B6FA00980121001B009000F0ECF802493A0151180098C860E6E7C8100020F8B5060116483418217A042903D0E068002802D017E00020F8BD00F017
:401CC0001FFA054600F096FA00F0A0F804280CD001010C480F18F8680021451900F0C6F80020F860284600F06FFA6068054D002801D0FFF765FF042020720020A85160810A
:401D0000E060DAE7C8100020FEB500266A46304601232549050169180D7A042D02D0C96800291BD000211154401CC0B20428F0D300246846005D002830D01B482101081884
:401D40004189476805680291002101604160042241810272C160002E02D015E01354E3E700F054F804280ED001010F4808180190C6680021304600F079F801980021C160D3
:401D8000304600F021FA0126002D07D038460299A847002F02D03846FFF712FF641CE4B2042CC6D3FEBD0000C81000200EB5002005216A4600901181508103486946006849
:401DC0000EF057F90EBD0000C00C0020074A0020010189180B7A042B02D0C968002903D0401CC0B20428F3D370470000C81000200549002002015218127A042A03D0401CE4
:401E0000C0B20428F6D37047C810002030B50A4B04200A4C00210A011219157A042D06D0D268002A03D09A4201D808461346491CC9B20429EFD330BDFFFF0000C8100020A6
:401E40007047000030B50020074C05460423020111190B72A5504D60401C4D81C0B2CD600428F4D330BD0000C810002030B5094C00231A011219157A042D04D0D568002957
:401E800006D02D18D5605B1CDBB2042BF1D330BD2D1AF7E7C8100020002070471CB5002469460C70142001902346054A05480EF0E5F804480068401C00D1FF2420461CBDF2
:401EC000191F0000C00C00203EB5124A0146FF2000230124126800290DD0012914D0042908D104206946009308814B8110460EF0C0F880B23EBD6846009304814381694600
:401F000010460EF0B1F8F4E768460093048143816946EBE7C00C002070B545890468416800890300FFF7B6FC08280509091E22282628002005F0F0FE1EE0022908D0C8B21B
:401F40002A4621460CF024FA2046FFF739FE13E002202A4621460CF01BFA2946204600F00DF809E000200DF083FD05E02046FFF7CBFE01E0FFF796F8002070BD014B002266
:401F8000DB681847C40C002070B5448905680089022803D0032809D0FF2070BD2246094C0023A46829460120A04708E0FFF7AAFA241DA2B200232946022006F09EFE00207A
:401FC00070BD0000C40C002070470000024800214160018041807047C40C002070B50C46002186B016460391012802D0022859D116E003A9012006F0D5FE01281BD1039DCA
:40200000324621462846FFF738FA0095287801900220694608814E816846FFF7B5FF41E0214D002B686809D0049004A9022006F0B9FE01281DD0022006B070BD002812D04C
:40204000298840182146FFF718FA28880024801980B228806988091D884206D12C801348FFF792FF03E00320E6E788421AD96C6018E004986860E278A378110219430B4A6A
:40208000698000231060E3565360032313815181A1788170E178C1706178417021780170042028800020C7E7C40C0020081100203EB515460C46022803D004280CD000207C
:4020C0003EBD0091019002206946088107484A8100680DF0CEFF07E00CF05AF9044B0022DB6829462046984701203EBDC00C0020C40C0020014AD16090607047C40C002074
:40210000034801688068081A0A214843000970471411002010B5FEF797FF482204490548FFF7ABF903490120C870002010BD0000C43001001815002010B5FEF77DFF10BD61
:4021400070B5134C2368002B08D0207B1149C20705D04008400020738868A08070BD88680B4AA18880B29268814203D90A4D691A091802E0814202D2411A5118A160A080D0
:40218000A0689842EAD30DF091FF00F013F870BD14110020C0102E40FFFF000010B508461946FFF7A7FF10BD704710B5FFF780FF10BD000003480021016041608160C16041
:4021C0007047000014110020024610B5FF20002A0CD0FFF7EFFF064C0321207B0843207310010A21FFF71EF82060002010BD00001411002000B504480A218068484302093A
:40220000FFF7D8FF104600BD141100200248007B8007C00F704700001411002010B54B490868002802DA4A4B01221A70022290430860484800694549C00B4031096A024676
:40224000C907C90F0A4259D0012000F0E5FA3F480E216C30FEF74CFE3E4820218430FEF747FE3C4814219C30FEF742FE3948FF21C131A430FEF73CFE3648FF212F31B030DD
:40228000FEF736FE33483449BC30FEF731FE31483249AC30FEF72CFE30492E48491CB430FEF726FE2B482E49B830FEF721FE29482C49CC30FEF71CFE26482B490830FEF7C7
:4022C00017FE24482949A830FEF712FE214828498830FEF70DFE1F4826498C30FEF708FE1C481921C9029030FEF702FEFEF702FEFEF7BEFEC0B2022812D01FE000290BD0AA
:40230000002101420AD0114801216030FEF7F0FD0120FEF78DFE97E70121F2E7FF2010BD15491648FEF7E4FD14481549001DFEF7DFFD124800210830FEF7DAFD54200449F2
:40234000C043891C0870002010BD000000F02E40D40C002000002E40320300002F3F00003102000010520000EC160000FA12000031D000003AE300009956000080012E4042
:40238000F80F000070B50646581C80B245086D00002408E0304600F0C1F81055000A1119A41C4870A4B2AC42F4D3D80705D0D0182038D15CC47FD454C17770BD30B50A4CD2
:4023C000002100195B1E07E0541864782502545C2C430480891C89B29942F5DB994201D1515C018030BD000000102E4010B5FF2000F012FA0F49FF2048700E481021801D2D
:4024000041800121417001700A490020C91C4870FFF704FF04000AD100F02EF907210648FEF764FD044807211830FEF75FFD204610BD0000D40C0020CC112E4070B50024F8
:4024400005465B1E0AE0284600F068F8010A161971702D1D1055A41CADB2A4B29C42F2DB9C4203D1284600F059F8105570BD000070B500210A4D5B1E0AE0541864782602A3
:40248000545C344346193480001D891C80B289B29942F2DB994202D1515C4019018070BD00102E40F0B50599091FCFB200217E1E0BE0541864782502545C2C43164D451948
:4024C0002C80001D891C80B289B2B142F1DBFC0712D01C78515C24020F4A0C4381180C809C785D78001D210280B2294384182180001D80B2D9780CE059781A7809021143D7
:40250000054A84182180001DD9789B78090280B2194380180180F0BD00102E40014940180088704700102E4010B50B490020487000F0A2F8002000F095F9002000F082F9AE
:4025400007210648FEF7D2FC044807211830FEF7CDFC002010BD0000D70C0020CC112E4010B50C48007801280FD100F089FF00F0DDF8002804D10848016A490849000162E1
:40258000054802213030FEF7B3FC02490020C91E087010BDD70C002040F02E4010B50B46062812D006DC01280CD0032801D1FFF7BBFF10BD0A28FCD00B28FAD10548007827
:4025C000107010BDFFF712FF10BD1146184600F065F910BDDA0C0020F8B5244DAC6A0127A007234E002816DA307806280ED1286A384328621F480069F903084381B21D485D
:402600001030FEF775FC042000F006F9174802212830FEF76BFCE00718D000F06BFF01280FD1002000F0B8FF062000F0F5F81049FF20C91E48707078002802D1686B384367
:4026400068630A4801212830FEF750FCE0050BD53078042802D1052000F0DEF80348FF2101312830FEF742FCF8BD000040F02E40D70C002000002E4010B503212348FEF7F6
:4026800037FC0120FEF7D0FC20483038406A204C80076178800F890001431C480C38FEF727FC6078002808D0401E022181401820FEF7A2FEC000083800E0B82081B2154874
:4026C000FEF716FC1348032109021438FEF710FC10481149B830FEF70BFC612189010F48FEF706FC0D480321001FFEF701FC0C490C48FEF7FDFB0B480B496038FEF7F8FBC5
:40270000084801218838FEF7F3FB10BD70F02E40DA0C0020D8102E4090890000041E2E40FF0F000058122E4020900000044800684007400F022801D000207047012070475A
:4027400000010B4000B5FFF7F1FF002805D009480168C908C900016000BD0748016A490849000162054801690122D2039143016100BD000000010B4040F02E4000002E4052
:402780000849087806280BD148780749002803D1486B400840004863C86A01221043C86270470000D70C002040F02E400148007870470000D70C002000B50300FFF76AF897
:4027C000080D050D0B070507090D012000BD032000BD042000BD022000BDFF2000BD0000074A9168D26889B2064B92B2994204D105498A4201D1012100E0002101707047E9
:4028000080002E4033D000003FE300000149487070470000D70C002010B50446FEF710FC072C01D9FF2C01D102480470FEF704FC10BD0000D70C0020014948707047000073
:40284000D40C002010B5064A012805D01921C9021046FEF74DFB10BD1D21C902F8E7000090002E4010B50A4A141D012808D009491046FEF73DFB08492046FEF739FB10BD2D
:4028800004491046891CFEF733FB0349491DF3E788002E4031D000003AE3000070B50C460546FEF7E5FBC0B202280E49287804D0FF2810D04C280CD810E0FF2809D10A4A6B
:4028C000D0680004800F032801D0087807E09069000A553803E00878207070BD4F382070087070BDD60C002000002E40F0B50122002834D0002932D00424420600D0052446
:40290000792342065B06D21800D0641C034600221EE00C2516466E43124D00277519AF72104F002ABB51696007D0661EB24209D10D4E86197606760E05E05E06760E802747
:40294000BE1B00E080269B198919521C2E81D2B2A242DED303480549006B002288611046F0BD0000A013002079020000E00C002018B50020694608700A48006900280ED02B
:40298000132149014018047E684604704F21C900054800F059F8A04201D0012018BD002018BD0000E00C002024110020074900200C2242435218927A012A05D0401CC0B270
:4029C0000628F5D30020704701207047A0130020F8B50E000446154609D0194F19497868A04202D94018A04201D38D4201D90120F8BD31462046FEF731FD00281ED02A46AC
:402A000031462046FEF739FDE8B200210C224A43D21913895568EE18A6420BD90126641B1B1B9672834209DA1469C01A044AC0B220329676491CC9B20629E7D30020F8BD63
:402A4000A013002079020000034610B50020024604E09C5C2018521CC0B292B28A42F8D310BD000070B500F05FF8084C064A216907480D46FEF701FD05492846FFF736FFE0
:402A8000FFF776FF207070BD79020000E00C002024110020002070470020054A002902D0012902D002E0906000E0D06000207047E00C002070B5084C154608460549E26856
:402AC00089182A46FEF7D9FCE0684019E06028B270BD000024110020E00C00203EB50A226946FFF7E7FF044606480A2200686946FEF7B4FC002802D00020C0433EBD20460A
:402B00003EBD0000E40C0020002802D0044A914201D2FF20704703494A6108610020704779020000E00C0020024800218160C16070470000E00C002070B5074C15460548B8
:402B4000A26880182A46FFF743FFA0684019A06028B270BD24110020E00C002010B503490A220968FFF7E8FF10BD0000E40C002010B50F4A002313600E4A13600E4B18608A
:402B80000E4801600E49012008600E490860000290600E490C4808600D4914300860FF381538506000F0BCF800F0CAF9002010BD140D0020FC0C0020280D00202C0D002029
:402BC000180D0020080D0020E81400200C0D0020200D0020014610B50020002910D0094B1A689C685118A14209D25868196080188A0704D08A07920F891A091D196010BD0C
:402C0000002010BDFC0C0020F8B50024164E671E321F3D463168136806E01422624310328A58521C1BD0641C9C42F6D36A1C14D02C461422544322460C3288500C21484399
:402C4000FFF7C8FF3168002808510AD031680020103408517068401C70602846F8BD2546E4E73846F8BD00000C0D0020F3B50026F64381B000281BDB1E490968884217D89D
:402C80000299002914D01B4F142204463F1D54432546396810354859401C09D0FEF7D0F938682F1F4159C359994203DBFEF7C4F93046FEBD214608310091465801590C2015
:402CC000704308180C220299FEF7D7FB0948761C001D0068C159B14200D100260549009A091D865008684159491C4151FEF7A4F90020FEBD080D0020002803DB07490968B7
:402D0000884202D90020C043704704491422091D096850431030085870470000080D0020F0B500200D4A451E0346171F50600FE014260146714314680E1DA3510C4616689E
:402D4000083433511668083435511468401C635039688842ECD30020F0BD00000C0D0020F3B50026F64381B0002841DB2349096888423DD8029900293AD0204F14220446A3
:402D80003F1D54432546396810354859401C2FD0FEF756F93868415900292BD0211D009146580C21005971430F46C1190C220298FEF763FB11480021001D0068761C005956
:402DC0000C34C0190160416081600C48001D00680159B14200D100260849009A091D865008684159491E4151FEF726F90020FEBD3046FEBDFEF720F9FAE70000080D00208C
:402E0000FEB504460D4600201E49089E0860471E009001900290002C11D0486885420ED2002A0CD0002E0AD0642E08D808460C3001681C2068430C18207A002801D03846A2
:402E4000FEBD0120226020721846FFF7DDFE6060401C13D06681A6810A4827610C3067610179A94200D205710021684601810A462846029B00F040F82846FEBD00202072EC
:402E8000DDE70000140D002038B50124009400F039F838BDFEB50027164EFF433D4600240EE01C20316860430818017A002906D04068FFF721FF002801D0254603E0641CA5
:402EC0003079A042EDDA681C12D01C2130684D434419FEF7B5F869466068FFF741FF0546FEF7AAF8002DD9D1216868468847D5E7FEBD0000200D002038B50024009400F0F1
:402F000001F838BD1FB500220C49541E0A60002811DB496888420ED808491C220C31096850430818406801A9FFF7A0FE401C02D0002004B010BD2046FBE70000140D0020D9
:402F4000F0B50021114A4D1E174611710C3F0B46BD6016E008461C2460431668041D355114680646235014680836A3551468361DA353044616680A34335318301468491C7A
:402F8000255078688142E5D30020F0BD200D002038B500210091002811DB0F49097888420DDA0D4D04010C3529680859002807D0201D0818694600F06FF9002801D00020DC
:402FC00038BDFEF73DF828680F34015D491E0155FEF732F8009838BD300D0020F7B582B0002502986E1E06602E48D21C024017462D4A2C4610460C380178106805E02301AC
:40300000C358002B0FD0641CE4B28C42F7D3711C28D03401211D40180191039900F02AF900281FD101E02646F1E71F48016820460C300F521C480399026820460E301154A9
:4030400019480399026820460F3011540398784300F0A0F8144900280968085102D00024009011E001251AE00F48016801980818009900F02CF9002801D0012502E000985B
:40308000C0190090641CE4B203988442ECD3002D05D10298066004480179491C0171284605B0F0BDFCFF00003C0D0020F8B50D4600216A468C461180002839DB2349097840
:4030C000884235DA214B04010C3319680A59002A2ED020460C300B5A801C0E5C184670438018954224D3854222D2002006E007465F43BF18AF4206D0401CC0B2B042F6D3E0
:403100006046002814D0114E271DC8190C366A46294600F006F900280AD168460088012808D030682946C01900F0D1F8002803D00120F8BD0020F8BDFDF782FF30680F3440
:40314000015D491C0155FDF777FFF3E7300D0020F8B50F46002400F031F8002817D10C4900220B460C334A600EE021011D680E466A501D680C36AA53B61C1D680F31AA5598
:403180001D68641C6A54E4B2BC42EED31A71F8BD300D002000280BD0C01C074A81085068890053884118994203D89368516018187047002070470000300D0020F8B50646B6
:4031C00000200F4D009029700C0121466846FEF7FFFB00280CD129460C3100980860301B001F84B221466846FEF7F2FB002801D0FF20F8BD6C800098A8600020F8BD0000A3
:40320000300D0020F8B5002827DB19490978884223DA174C05010C342168485900281CD028460C30085A009028460E300E5C401C0E5420682F1DC01900F064F800280CD15B
:403240002068002445590EE0094829460C300068C01900F03CF8002801D00120F8BD00982D18641CE4B2B442EED30020F8BD0000300D002030B50D4604000BD0A800FFF755
:4032800089FF6060002805D000202570C0436080002030BD012030BD70B50D46040005D0002D03D00220205E002801DA012070BDFDF7C6FE0221615E6068890040582860C9
:4032C0006088401E6080FDF7B7FE002070BD70B50D46040007D0002D05D002212078615E401E814201DB012070BDFDF7A9FE6088401C00B26080616880000D50FDF79CFEF3
:40330000002070BD10B5040009D0227800216068FEF7BCF80020C0436080002010BD012010BDF0B500231D46002802D00224045F0AE00120F0BD46689F00F6598E4201D1F0
:40334000012503E05B1CDBB29C42F4DA15700020F0BD00000148007870470000440D00207CB505460024FEF7CDF8A8796946087000A8062229460130FEF77FF8002168460C
:4033800004F090FF0C2806D0072806D01F2806D0122806D006E0022404E0042402E0272400E0012420467CBD01480121417270472016002010B502280BD0032802D0042847
:4033C00009D102E000F076F905E000F021FAFF2801D100F031FAFFF7E9F9FFF7EDF910BD10B500F059FAFFF7E1F9FFF7E5F910BD70B504460025FEF785F8002C06D0A07993
:40340000012803D8214602F0D5FD00E00125284670BD01460120002902D05020088000207047000001460120002905D003485422007850430880002070470000460D002086
:4034400010B502460D49FE204870032410460DF033F9002810D10DF0D7F800280CD105F0FDFC002808D100F027FC002804D105F0BFF9002800D10024204610BD440D002026
:4034800002480021018280210180704700102E4070B50025044600280ED0A07901280BD8FEF730F8A0790028204602D003F05EF903E003F033F900E00125284670BD000085
:4034C000014610B50120002904D006220248FDF7D4FF002010BD0000500D002001460120002903D0087802490870002070470000460D00200148007A70470000201600203E
:4035000038B504460120002C20D0617801291DD800290BD0FF25E535FDF7F4FF0C4828180088C0B22070072803D00EE0FF25CD35F2E70020694608706846FFF751F9694605
:403540000878012801D108202070002038BD000000102E40014A002192681047440D002008B500226B461A7026280CD0094A342852680BD0352805D1900703D500213520B7
:4035800005F048FD08BD19462620F9E7D007F9D03420F5E7440D0020014908727047000020160020F8B504460120002C26D06178012902D92278092A20D8002905D0FF2576
:4035C000E5352078092803D004E0FF25CD35F8E708202070FDF796FF2078114F114E08280DD00020FFF73EF970780128207810D00D4969180880FE2070700020F8BD01205E
:40360000FFF730F90720B8810549203188800120F2E7B8810248217820308180EBE70000C0112E40440D002000102E4070B50E46050001D0002400E00C4C002C11D0E28AD9
:40364000500609D5D107C90F022003F02DF9E08A40218843E08204E0D107C90F012003F023F93146284602F001FE70BD80150020F8B50546002004460D4E009013E022460F
:403680006946284601F002F90098002801D00CF0F5FFA878214602F0CBFBA878214602F0B9FB641CE4B2308AA042E8D8F8BD00004C160020F8B54E4CFFF778F8012847D17D
:4036C0004C480078002843D002F058FD00283FD004F08AFA00283BD0474E7078C00703D000F01CFD012833D0307E00287DD17078002500285BD0000706D540488089070B05
:4037000000F02EF9384370D13B484178684604F0C1F821793A4CA2788918C9B2814262D802F02CFD002860D0344860300789324E203602F06DFB6846008802F097FB02F0E1
:4037400033FC30490988884203D10120FFF764F84BE02D49012008702748807B00281DD0002F1BD04036F07E002817D123486030008821494000C031498981420AD26078D1
:40378000002807D103F0BEF82049088A03221202104308822078002800D0257002F09CFB0120FFF733F800F025FC174C15E002F0E5FC002819D0102402F0F6FB214602F0A2
:4037C000DFFA02F053FB104C0120207002F084FB0020FFF71BF800F00DFC20780128B4D1FEF7B0FF25700020F8BDFF20F8BD000058150020D40C002060150020A0102E40A8
:403800006A0D00207C0D0020560D0020E0112E4010B50848FF244078002809D102F0AEFC012805D1FEF79CFE0720FEF7F5FF0024204610BD6015002038B5FEF7B7FF01288D
:4038400001D0002038BD02F099FC00280AD0114C6078C00703D000F061FC012802D0207E002801D0FF2038BD617800290FD0684604F010F8022806D96846008802F0F6FA6B
:40388000012002F033FB0320FEF7C6FFD9E70020F7E700006015002038B51E4CFEF786FF042813D0052811D0062812D003282AD007280AD100206946087002460120FEF7C5
:4038C0006DFEFEF773FF0128FBD138BD00F0B2FB38BD02F023FB00F0ADFB02F09FFB8007800F0228F4D10C4841880029F0D05B21095D0029ECD101210170A07D0140022060
:4039000002F0D2FF38BD02F00DFB0120FEF784FF38BD0000801500206A0D0020F8B50646002403F02FF80546304603F045F803460A480021068A0DE001228A4010461746FA
:4039400028401F40002803D0002F01D1224394B2491CC9B28E42EFD82046F8BD4C16002070B500252C460A4E03E0002C01D0002000E030460079002803D02046FFF7CEFFBE
:403980000543641C2406240EEFD0284670BD0000801500201CB50020694648706846FFF7AFFD01AA69460A20FEF7F8FD6946042008561CBD70B50D4601F048FB04000BD029
:4039C0002079002808D0FDF79DFDE178A0782A4602F0D2FC002070BD022070BD0148007870470000581500204030C07E002800D00120704700B500F001F800BD9021484349
:403A00000749084A40186030417F491CC9B24177D289914201D300214177C8B270470000601500204C16002013B501F00FFB04000BD001F0ACFE002807D0214601AA0A31F8
:403A40000620FEF7ABFD00201CBD02201CBD000010B50C4601F0FAFA00280AD001F097FE002806D0224604490A20FEF797FD002010BD022010BD000041150020F3B581B07A
:403A8000074601460026029802F074FF0446002F01D0002500E0154D002D21D0284601F00BFB032C04D13946029802F0BFFF06463846029902F0AEF9032C06D0002C10D03D
:403AC0000121384601F0FEFB03E03146384603F0ABF9284602F08CF80221284602F0A2F8FEBD3846029902F095F9FEBD8015002010B5044600F066FA002804D103F05EFE5D
:403B0000002801D00C2010BD2078611C02F036FDFF2801D01F2010BD02F07CFDFF280AD02178621C02F0FEF8044821780068026B601C904710BD072010BD0000900D00205F
:403B400010B503F03BFE002801D00C2010BD02F0F7FC03480068C06A8047002010BD0000900D002070B50D46044610210CF0C6FC1021601806460CF0C1FC334610221946C6
:403B8000204603F049FE102130460CF0B7FC02202870204604F062FD70BD0000F8B504464078217802028006870FE0781143A67809050002090D0643084601F047FA00212D
:403BC0000546F2B2002812D0002C10D0022F0ED0032F0CD0002A0AD00279092A07D0002A05D0134A5A23527E1B5C9A4207D82889002104F068FC20460CF040FDFF2100292D
:403C000014D10C48224600682946436930469847C0B2FF280AD128464030817EF2B2491C8176FF232146284600F0E3F8F8BD000018150020AC0D00200020704710B5044637
:403C400003F0BCFD002801D00C2010BD2078611C02F094FCFF2808D002F0CCFB044821780068426B601C904710BD1F2010BD0000900D002010B500F06BF904F0B9FD002091
:403C800010BD10B5044600786178E2780843A17811430843217908436179084305D003F07FFD002803D00C2010BD122010BD204602F05CFD002010BD10B5FDF7D9F902F01E
:403CC00083FE044803F0DEFE02F09EFB012000F003F810BD28150020F1B586B003A8009005A8019028489F22817A114081726846FDF722FC002845D169460989C90705D0BE
:403D0000224806990068C2686846904769460989890706D5002835D11D480068816A0698884700282ED11B4E0025757075737571F575357675767575B570F570B5713746E5
:403D4000F5730120D03738731F20F880FF2130467972A0300176457600F0F0FA00242046069901F0BFFC002803D1641C2406240EF5D0FD720749BD72B573C0310D704D7041
:403D80004D600D7207B0F0BD18150020AC0D0020900D00206015002070B505460E46084602F0F0FD0446304602F006FE0121A9400A46224001400A4301D0012070BD0020CA
:403DC00070BD10B50446084602F0F6FD0121A140014201D0012010BD002010BD10B5FEF7E5FC032804D102F09DF80120FEF714FD10BDFEB51C4616460F46054601F0F8FE54
:403E0000A878FFF7F7FD02460190334639460094284600F00DF8002808D1A8780199FFF705FCFF2C02D138460CF028FCFEBD0000FFB585B005460E980C46FF2810D02B4900
:403E4000C00009680A5840180179C0795278814201D9012601E09006860F6846038108E06078A1788006860FE0780002014368460181284601F096FC070007D02146284672
:403E8000079A00F097FC384609B0F0BD304600F045FD04AE0346039002AA29460096204600F0D1FB3C20405D002818D0284601F079FC012813D0684600890096C0B2019038
:403EC000A878231DFF22079902F084F968460089039BC2B2A878079902F0C4FCD3E7684600890021C0B20091E9E70000A80D0020F8B5002600253046FFF710FD07001DD058
:403F000090201149704340186030447F12E0601CFDF788F9CCB23846E040C007C00F07D02146304601F06CFF21463046FFF7A6FD6D1CEDB20548018AA942E8D8761C360685
:403F4000360ED7D0F8BD0000601500204C16002010B502F059FA0020FFF7BEFE0CF024FC002010BDF8B5002400F0D2F80123012800D10124104F00203E462036042508222B
:403F800003E0002801D0002100E031460979002907D001290BD002290BD0114681402143CCB2401C0006000EEBD07C70F8BD1C43F7E72C43F5E700006015002010B5FFF782
:403FC000D1FF10BD10B5044604F064FD002802D1601C00F001F810BD1CB500240094062269460194FDF73AFA002800D1122420461CBD000070B50E4CFCF763FF0546FEF7F4
:40400000D5FB062802D02078012803D02846FCF75CFF70BDFCF75CFF2846FCF756FFFEF7C5FB0628F5D020780028E5D170BD0000560D002010B5FCF744FF0446FEF7B6FB76
:40404000012809D0FEF7B2FB022805D0FCF740FF2046FCF73AFFEEE72046FCF736FF10BD10B50B4681791943817103D08078114602F0C6FB10BD10B582798A43827102D156
:40408000807802F0D1FB10BD30B50C4C0220A28A0B4B9978002901D0022906D11D785B78EB18282B01D9032002E0032900D101205105490DC0020143A18230BDC0112E40D3
:4040C000600D002000B500F029F8002807D0012805D0032801D0042801D0002000BD012000BD014600B50020C90701D000F010F800BD014600B50020C90701D000F008F89D
:4041000000BD00000148006870470000580D002001480088000A704720102E400448008B410501D5042070474007800F7047000000102E4010B501F037FF044601F07EFF28
:404140000146204601F058FF10BD00000148406870470000580D002038B50446000610D5FFF7DCFF01280CD1684601F0EBFE6846007800F023FB012001F0A2FD0220FFF7D2
:404180001DFF600708D507480179012904D1002101712620FFF7E4F90348006801692046884738BD640D0020900D002070B505460C49007800240870FFF7AAFF012803D121
:4041C000FFF7B8FF022803D3284602F03BFA07E0284600F0EBF8040002D1034801210170204670BD600D00202016002070B50446FFF78EFF002801D00C2070BDA27B0121A7
:404200001F48002A827801D00A4301E05208520082706279012A14D0C17849084900C170184D2868016820468847207901280CD06188208803F074F82080207904280FD003
:4042400015E0C2780A43C270EAE72868C168E01D8847E01D02F076FA0B48808C208006E02868C168E01D8847E01D02F06BFA074920798870204602F0F3F9002070BD0000AB
:4042800060150020900D002018150020600D002008B50178FFF73CFF814201D10C2008BD002914D0072069460870FFF70BFF012807D10121684600F0D9F8012801D00920D5
:4042C00008BDFFF7E1FE02F0FFF9012011E0FFF7F9FE012806D1684601F034FE6846007800F0A0FA02F0E6F9FFF712FF0028FBD10220FFF763FE002008BD000070B5054620
:404300000C49007800244870FFF702FF012803D1FFF710FF022803D3284602F051FA07E0284600F05DF8040002D1034801214170204670BD600D00202016002038B5684690
:404340000CF032F9002801D01F2038BD01210098C90201804180002505714571857107214173857302F07CF9009C202200212046FDF78CF825702A460021601CFDF786F8AF
:40438000204602F05FF9204602F01AFA00980CF075F9062200210448FDF778F802480C388560002038BD0000640D0020F8B504460025684600950CF0F7F8002801D007255E
:4043C0000AE0064E009830602278611C401CFDF754F83168207808702846F8BD580D0020F8B504460025684600950CF0DDF8002801D007250AE0064E009870602278611C41
:40440000401CFDF73AF87168207808702846F8BD580D00200346084800B5834209D8184600F014FE002804D00089984201D1012000BD002000BD0000FF0E0000074A9179C1
:40444000491C8906890E917138220A4092014907090E1143084302490840704760150020FF0E0000C006C00E70470000F8B507460E4600240D4803E0002C01D0002500E08F
:4044800005462979002905D0641C2406240EF3D00020F8BD0021204601F024F92E712046FFF7CCFF28813C700120F8BD8015002010B503F0E5F90222002100F003F801F0AB
:4044C0004FFF10BD10B5094B40074907000F090F185A595A40185043C0086421FCF7A2FE002800D1012080B210BD00000C310100F7B53D20405C88B015460C46002802D0FF
:404500002878042802D200200BB0F0BD6946087200262046FFF768FA012800D00126204603A938300191009023460327A17E34333246206A03F0C0FA02A8089900900B4696
:40454000019120463A4603A9243003F045F902466846007A2870204601F0B0F81046D3E7FFB587B00C4605461078694608723D20005D1746002826D000262046FFF734FA5D
:40458000012800D00126204603A93830019100902346A17E34333246206A03F08DFA02A80090291D019120462B1D03A924300A9A03F012F902006846007A388002D1204657
:4045C00001F07CF810460BB0F0BDF0B505463C20405C89B016460C4600280CD0307869460873002806D000272046FFF7FDF9012803D003E01F2009B0F0BD01270320089015
:40460000204604A93830019100902346E17E34333A46E06903F050FA6846007B03A928180290009120462B46019504A92430089A03F006F902466846007B3070204601F006
:4046400047F81046D7E7FFB505463C20405C89B016460C46002810D0084601F0A3F801280BD0308869468883002809D000272046FFF7BAF9012805D005E000200DB0F0BD0D
:404680000220FBE70127204603A93830019100902346E17E34333A46E06903F00DFA291D2B1D07A8129A6D4607C5204603A924300C9A03F0C5F802466846808B3080204605
:4046C00001F006F81046D9E770B50D460446FFF78BF901280AD0E87AA97A00020143A07801F02AFD012808D0002070BD00222421204602F067FD242070BD28214C2001558E
:40470000204600F0B1FB282070BD0000002801D0002000E003484030C07F012800D0002070470000801500200146002049070ED50021084B03E0002901D0002200E01A463D
:404740001279022A04D0491C0906090EF3D0704701207047801500200146002049070ED50021084B03E0002901D0002200E01A461279022A04D0491C0906090EF3D070473F
:40478000012070478015002010B5044680346068002803D00BF086FF0020606010BD4030417070474030817070474030017070470171704792001018C166704770B53C25EA
:4047C00001F096F9040004D020460021433001F053FCFF222946204600F0E2FB002C02D0A07801F007F970BD10B5002801D0002000E00348002802D0008903F0ABFE10BD3B
:404800008015002010B5002801D0002000E00448002804D00179072901D100F047F810BD8015002010B501F063F9002802D0807801F0E0F810BD00207047000070B50546AF
:40484000008A00281ED01049F122897A1140C90618D5294640314A8A098A521C4A4392B2D10800D10121540801E0621A94B2A042FBD9FEF76FFD012804D1298AA87822467B
:4048800001F030FD70BD00001815002010B50023054C0B60248A944204D992001018C26E0A60C36610BD00004C16002038B5044600200090A079002814D14020015D052996
:4048C00001D00E290ED168460BF07EFE002809D12046009902F054FC03481021C28A2046FFF7BEFB38BD00001815002010B50B4604460146184602F0CDF8002802D020462E
:404900000BF0C6FE10BD13B5044601AA11460620FDF744FE6846818861811CBD002800D10220704770470000F8B504462346401D543300909A1EA078911E01F01FFB2546B7
:404940004035A88A298A8000FCF76CFC401E81B2688A884203D96982A07801F0DFFF698A8C20015120460021433001F085FB27480088E88102F084FFE989891C8AB26179A9
:40498000FFF7A0FD01F0ECFC02F07AFF2A8A6179FFF798FD074601F0D7FC688A002806D01B49088A032212021043088202E0002001F0A8FF1648803801886E8A002E0CD0BF
:4049C000304648431349FCF717FD0004000C01D0401C80B21049488002E00F4800214180288A704381B2A07801F0F8FEFF2228374932B9B21346204602F096FCE98AA078DD
:404A000001F06CFEA07801F025FAF8BD80102E40E0112E40710200006A0D00207FB504468034616805460E46183108226846FCF724FD31462031082202A8FCF71EFD10212D
:404A400068460BF05BFD6068102108300BF056FD60682B46083024331022694602F0DCFE7FBD10B504460821FFF705FB10212046FFF701FB207905281FD006281DD008284E
:404A80001AD12189002003F0DDFC072020712046FEF7AAFF014620464030012913D00E21017000210176204600F0B6FF2046FFF76BFE2046FFF7C2FE10BD208901220021B1
:404AC00003F0A4FCE1E70521EAE70000FFB581B01F4604460821FFF7CEFA10212046FFF7CAFA2079082803D0092804D0042203E00422012501E009220025204600F03EFEDF
:404B0000264600204036307022712046FFF73CFE0398002D02D0012808D00BE001280AD120890022029903F071FC04E02189029803F088FC012700203076012F04D0204663
:404B400000F06AFF05B0F0BD02983073204602F065FB054605480121C28A2046FFF780FA002DEFD109202071ECE700001815002070B50C460546FEF737FF012809D10821C9
:404B80002846FFF778FA0023012221462846FFF79DFF70BD10B5044600F0F0FD2046FFF7F3FD00214034217010BD70B505461A24FEF71AFF012809D108212846FFF75BFA79
:404BC0000023012221462846FFF780FF70BD0000F8B50446002000900E4668460BF0F4FC002801D00D20F8BD8420005908212030009D00F026FA20460421383000F021FA68
:404C0000002E02D1204600F0F5FD2946204602F046FA0E480821C28A2046FFF721FA204600F06BFF25464035002808D0204600F023F8002801D0092028700020F8BD08201A
:404C40002870204600F0D4FFF7E7000018150020014610B540310A460978082906D0092907D00A2901D100F091F810BD0B20107010BD00F001F810BD70B50446007925461E
:404C80004035052805D0062803D008280FD00C2070BD03220621204602F094FA0D480821C28A2046FFF7DCF91120287010E006202873204602F0B2FA0646AA8A0A2042433A
:404CC00001212046FFF7CCF9002E01D109202071002070BD1815002038B504460020009068460BF071FC002801D00D2038BD2046009D00F0BDF908202071204600F07AFDD6
:404D00002946204602F0FEF900213D2001550F2040210855204600F06BFF002038BD00B5024600F02BFD10214032117000BD10B50446FEF759FE012809D04020005D1128D6
:404D400005D100231A4606212046FFF7BFFE10BD10B5FFF786FE10BD38B504460021684600910BF031FC00280CD12046009902F04AFA05480821C28A2046FFF771F90D2013
:404D80004034207038BD00001815002038B504460021684600910BF017FC002801D00D2038BD2046009902F023FA05480821C28A2046FFF755F90C2040342070002038BD2E
:404DC0001815002000787047F8B5002569460D70002801D0002400E01F4C002C18D0204600F0D5FC002813D0207903280BD005280CD026464036B18AA07801F0F9FCB078A0
:404E0000012806D01DE0042020711DE006202071F8BD0021204601F05AFE274680373868002802D00BF03EFC3D600020B0702079072802D12046FFF701FD0221204600F04A
:404E4000F1FE20790428E3D1207A694608703420FEF786FBF8BD00008015002010B54C22115400F04CF810BD10B50446FF21FFF702F909202071A07801F0E0FC10BD0000B0
:404E800038B5FF216A461180002801D0002400E0084C002C0DD011460620FDF77FFB684601882046FFF72FFD03480068C1692046884738BD80150020AC0D002010B50446FC
:404EC0008079002809D022214C200155FF212046FFF7D1F8204600F012F810BD10B5037902464032002B03D01173092B02D003E0002100E02221117300F001F810BDFEB5AA
:404F000004460089002700902781207926464036002817D0012815D002280AD112E002AA01A9204601F0A4FD002807D101980BF0AFFB204601F0C4FD0028F0D02046FEF7C9
:404F400097FBB776254680352868002802D00BF0A9FB2F606868002802D00BF0A3FB6F60317B002919D0009800F064F8A078002100F092FF2046FFF79BFAA07801F0C6F854
:404F8000A07800F037FDFF212046FFF774F80B20FFF714F800F068FCFEBD1F213173E2E7F8B517460E46054602F066FC04003CD020460C3001F050F8204606220021183005
:404FC000FCF764FA2046062200211230FCF75EFA1648224600683946436A28469847074626702846FEF700FD012148406070002D10D02889608028464030C1782171002E4B
:405000000FD169796171018AE180418A2181808A608106E00648008BC005C00F2071002060803946204603F090F9F8BD900D002000102E400A4610B50146002003F0A2FA58
:4050400010BD10B50BF036F810BD000000B50146FFF708FA002801D0002000E00348002802D002898A4200D0002000BD8015002038B5044680346068002806D168460BF062
:40508000B3FA002801D100986060606838BD000010B5014600F086FB0128887802D0FEF7ADFC10BD90214843024940186030007F10BD00006015002070B5054604464035D2
:4050C000A87F012811D1A1789020084A484380186030067F3046FEF75FFE002805D10220A877A078314601F0CBF870BD6015002010B50C4CA07A002813D0FEF7F9FE0A489F
:40510000027F417F408B00F0B7FB012809D10020A07200F02DFF05498989090B01D000F03BFA10BD3016002060150020A0102E4070477047490510B5490F0B00FCF7AAFBA4
:40514000060704080C0C0F073E21FFF787FE10BD0821FFF7C3FE10BDFFF7D1FE10BDFFF7ADFE10BDF8B507460025002D01D0002600E0204E00F0A6FE30464030448900219B
:40518000418100F0C3FE304600F001FB01282BD1A00702D52846FFF717FEE00602D52846FFF76EFEA00601D5FEF7A2FE600601D500F014FB200602D5284600F01DF860074E
:4051C00002D5284600F02CFA380402D52846FFF719FB780402D52846FFF706FBE00703D021463046FFF7A6FF6D1C2D062D0EBCD0F8BD000080150020F8B5002801D0002428
:4052000000E0284C002C4BD025464035A878012846D1FF278820493700593E46002805D02149897A890601D5878AC68A2046FEF7DBFB012834D002F023FB2A8A6179FFF746
:4052400041F9009001F080F800983346283081B23A46204602F068F8E98AA07801F03EFA12480188688A124E002810D048431149FCF7C2F80004000C01D0401C80B2708045
:40528000A07DC107C90F002001F00EFB01E000207080288A698A484381B2A07801F09EFAF8BD0000801500201815002060112E406A0D002071020000014909680968084707
:4052C000AC0D002070B50D460026194A0146002801D0002401E014462034002C26D0204600F060FA01280AD19020484380186030007FFEF751FD002801D101F00FFF0D4898
:40530000006881692046884700280CD020464030817EA94202D3491B817600E086762089294603F0D0F8204600F062FC70BD000060150020AC0D002070B503460088FFF708
:4053400085FE040013D000F022FA00280FD02079092819D02546997840352973204601F05DFF0646A878012803D0AA8A02E0022070BDEA880A20424301212046FEF770FEE4
:40538000002E01D109202071002070BD0EB5002217216B460292198100905A810120029B00990BF01FFA0EBDF8B518480024807A002822D1164E0025B089000B22E02046CE
:4053C00000F074FE1249A039401807882A462146384600F051FA012810D00E480122478305770A4944778A72002D01D0002000E02030002801D000F0FBFBF8BDB089000BA8
:40540000641CE4B20028DAD1F8BD000030160020A0102E406015002010B50088FFF716FE002809D0014640310C460978082905D00B2903D00C2010BD022010BDFFF71CFCCF
:40544000002801D009202070002010BD70B503460088FFF7FBFD040008D0254640352878082805D00B2803D00C2070BD022070BD8420005910220830991CFBF7FEFF204629
:40548000FFF7CCFA2878082804D02046FFF77EFC002801D00A202870204600F0A9FB002070BD000010B50C46002121700088FFF7CDFD03000BD000F06AF9002807D0094822
:4054C000F121807A0840C00603D4112010BD022010BD022020701A8A1889002103F06EF8002010BD18150020F8B50F46002100910088FFF7ABFD040012D000F048F900280A
:405500000ED0E079410641D4617E02264A07002A08DB8907402500291ADA2843E07135E00220F8BD02F0A8F90021017021894180A1898180217E4170E189C1803E7005460A
:405540000178134802F014FD284602F0DBFF1DE0204600F02DF9012806D068460BF034F8002803D00720F8BD2A20F8BDE07900992843E071204601F07BFE607E0421304303
:4055800060760448C28A2046FEF76AFD0020F8BD1D040000181500203EB500220F236C460292238100910190628169460EC900200BF018F93EBD0000F8B50F46054600F058
:4055C00097FA040025D003202071254600264035EE76E6702046FFF7A7F901F06BF80920FEF7ECFCA07800F07FFD0121204600F019FB2E706E70AE703A4600212046FFF7B0
:40560000CFFC0649887B401C8873A078FFF754FEF8BD284601F012F9F8BD00006015002010B5002801D0002000E0094800280DD0014640310A464978022901D10021517071
:40564000807DC107C90F002001F02EF910BD00008015002070B503460D460088FFF7F6FC04000BD000F093F8002807D01248F121807A0840C00603D4112070BD022070BD51
:4056800020464030418A008A491C41430804C10C5888884201D2122070BD20822079072802D12046FFF7CAF8022028702089002102F0ACFF002070BD18150020016A491C3B
:4056C000016204D1817E491C4906490E81767047C169491CC16104D1C17E491C4906490EC1767047F0B5074687B003A8009005A800260D460190002F01D0002400E01B4C76
:40570000002C05D06846FBF717FF002803D00BE0022007B0F0BD68460089C00704D1902200212046FBF7B2FE114829460068826820469047050016D1A7706676274626715E
:4057400040373E70204600F019F8204601F0B4F9084820820848BE77807AF121084000D001202075E682E8B2D3E7000080150020AC0D0020B80B000018150020002101626A
:405780008176C161C17620300177417770470079002805D0012803D0022801D001207047002070474030807F002800D00120704740300078002807D0012805D0052803D022
:4057C0000E2801D0012070470020704710B5807801F0F2F8002800D0012010BD10B500F0C7FB03498989090B01D0FFF7D5FE10BDA0102E4070B5054604464035A87F002889
:4058000025D1FF206075A0789021154A484380186030417F9023491CC9B24177A0785843104B8018DB896030994201D300214177A0789021484380186030467F0677A1789F
:405840003046FEF7A9FA002802D00120A87770BD0220A877A078314600F012FD70BD0000601500204C1600200020401C0006000EFBD0002070470000F0B515468207920F44
:4058800085B0000A02926A469080002D01D0002400E0564C002C28D0084600F007FC07466846808800280BD00298012843D0022841D003280BD03D20005D012879D08FE094
:4058C0004B48381801882046FFF71DF888E00020029002A80AF058FE002807D03D20005D012802D12046FFF7E9FE7CE06846029E8388324600213846FCF744FD3C483818EB
:4059000001882046FEF7FFFF284600F0B5FA01AA21463046FEF7ECFD002806D030460AF0A3FE3D204C21085531E0F5773146204601F02AFA57E0002000902089039068469C
:405940000AF012FE002802D0002005B0F0BD6846009E8388321D00213846FCF713FD2448381801882046FEF7CEFF284600F084FA2046FFF70CFF002805D025464035287E26
:40598000002810D107E030460AF064FE2BE02046FFF76AFA27E001AA21463046029BFEF7DFFD002806D030460AF054FE3D202873EDE712E00298FEF7B5FF039931700399C3
:4059C0000001090A0143717068468088B070000AF0703046FFF7DAFC05E02046FFF76EFE284600F049FA0120AFE700008015002000102E4010B5074A917B002901D0491E31
:405A000091730021FFF76EFE002801D0002010BD012010BD60150020F8B5074606464037B87F00282DD0B078902100904843234945186035287F0099FEF7C3F901281ED003
:405A4000287F401CC4B21E48C089A04200D800240020B877FF276F772F77A87702460146009800F079FD717DFF2903D0304600F0E4FF777501F052FB0025114F19E0032076
:405A8000B877F8BD00200090224669463046FEF7FDFE0099002904D0FF231A463046FEF7A8F9641CF889E4B2A04200D800246D1CEDB2F889A842E5D8F8BD000060150020A2
:405AC0004C16002010B502460021084B03E0002901D0002000E018460479944204D0491C0906090EF3D0002010BD00008015002000B50120FFF7E6FF00BD10B5044601F0E3
:405B0000BBFE2189018080346168416061682831816002F0B1FC10BDF7B50646087982B00C46092807D0A078F0770846FFF73AFE012806D010E030460AF0AAFD022005B017
:405B4000F0BDA1789020294A484380186030007FFEF722F9012810D0A078FEF7D7FD01280BD037780121304601F084FA25462035062F38D00B2F0FD107E06846027C2146C5
:405B80003046FEF7B3FE0D20D9E72046FDF72CFF012801D1002028772046FFF779FA054604AA21463046FEF710FD01205F2108556946097C002001910090A07833463A4671
:405BC000294600F007FB69460A7CA0780323294600F048FEA0782946FDF728FD30460AF057FD0020ABE70120D5E700006015002010B502464032937F0021002B03D1927EE3
:405C0000002A00D00121064A927A002A00D000210279092A00D10121807800F065FE10BD3016002070B50C460546FDF7DDFE00280BD1012C06D92879092806D02846FFF705
:405C4000C5FD0446002C02D004E0012402E0A87DC007FAD1A87DC107C90F204600F024FE70BD0000012807D0082804D104480282034808300180704701488038FAE700009C
:405C8000A0102E40014908817047000000102E4010B50446FF20F130012C01D1FF20D530002200F053FE044A108A044980B2A0430880108210BD000000102E406E0D00209F
:405CC000034B198A034A89B2814311801982704700102E406E0D002010B50446012802D0082C07D102E0FF20D53001E0FF20F13000F024FE0348018A034A89B221431180C9
:405D0000018210BD00102E406E0D0020034B198A034A89B2014311801982704700102E406E0D0020F8B505460120A84086B214460F46012231467C2000F008FE3A46314636
:405D4000782000F003FE6078267800020643E078A2780002024360792379000203430C2045430D2080010549281844182680001D44182280001D40180380F8BD00102E402B
:405D8000401880B270470000CB065B0E0343480901021943D00108430121C902084301490881704780142E404278037812021343084A1382C37880781B021843908248788F
:405DC0000B78000203431383C8788978000201439183704700142E40024A1080000C90801181704700142E40044A002180180288491C89B21029FAD37047000000102E403F
:405E0000024A10820148803081817047A0102E407047000010B5054A1082084600F0BAFD024A0021A03A8018018010BDA0102E4010B50B46044600F005F819462046FFF70F
:405E4000DFFF10BD024A10820148803001817047A0102E4010B504490882FF20002220211D3000F073FD10BDA0102E400149088070470000C0102E40000202494D3008807A
:405E80007047000000102E400249888A0422904388827047C0112E4010B5084B074C0202A03B0029208202D075321A8010BD04490020088088807632F7E70000A0102E40C1
:405EC000201A2E4000B5034908884880FFF7F8FE00BD00006E0D002010B50120FDF75CFB01495020088010BD00102E4006490E220028888806D01043888003495120C03901
:405F0000088070479043F7E7C0102E4000B502484088FFF7FBFE00BD6E0D002010B5FCF72FFC10BD014952200880704700102E40884201D8081A03E00022D243101A40189B
:405F400080B2704700210170704700000748808806492039098B884201D8081A03E00022D243101A401880B27047000020112E400148008AC0B27047A0102E4070B5084CE0
:405F8000049D2082074804890548603006880E8001891180808818806007400F287070BDA0102E40E0112E400148008970470000C0102E4000280FD00D4A108B0870000AD4
:405FC0004870908B8870000AC8700948203000880871000A48717047064A10880870000A487090888870000AC8701089F0E7000040102E40C0112E4000B5024A00F004F8AA
:4060000000BD0000FF7F000000B51346FFF790FF984201D8022800D2002000BD0148008A70470000001A2E40024908820248008970470000A0102E40001A2E40014880889E
:406040007047000020102E40024908820148803000887047A0102E40064B1A8999891B8A0270120A42708170090AC1700371190A4171704760102E40012904D00549098BB2
:40608000C90B017070470349403109898907C90FF7E7000000102E40024908820248008970470000A0102E40201A2E4001484089704700004C160020024908820248808939
:4060C00070470000A0102E40001A2E40044A10820448028980894843101880B270470000A0102E404C1600209021074B414300B5C918FF2260314A770A7700228A771146BC
:4061000000F02AFA00BD00006015002090225043074A10B58018FF21603041770177002181770448418EFF201D3000F007FC10BD601500201815002000B5044A1082034804
:4061400080308088022200F003F800BDA0102E4010B50023884201D8081A03E00024E443201A4018044980B2884201D8824200D90123184610BD0000FF7F00000248808832
:406180000006C00F70470000C0102E4002488089C007C00F70470000201A2E4070B55478157824022543D47888232602947834435679127936023243002900D09823044917
:4061C00008820348A038181805808480028170BDA0102E40FFB581B014460D4607460A9E0B9BFFF773FF002E0AD0009333460021049AFCF757F905484019C45505B0F0BD9F
:406200000021049AFCF734F9F5E70000720D002070B502460448054D808808242C800B460021FCF725F970BD4C160020A0142E4010B5212402466401044953200880102393
:4062400000212046FCF714F910BD000000102E40417802780902044B0A431A83C1788078090208439883704760142E40034A1082802001430148803001817047A0102E4087
:40628000054A1082044A6032908B0009000108439115084390837047A0102E4030B500210F4B0A46012809D0032802D005280AD107E04021198102210A2204E004210C22B5
:4062C00001E004210D221882054C20342088C0B205460D42FAD022800021198230BD000080142E4010B5044607480482074801808280032189030820FFF7EEFC2002024984
:406300007530A039088010BDA0102E40201A2E40054A1082044A60321183000202494B30A039088070470000A0102E40054A491E1082044A60321183000202494C30A03913
:4063400008807047A0102E400349884200D908460249088070470000FF0F000060112E400349884200D908460249888070470000FF0F000060112E408823002900D0982379
:40638000084908820748A038191808881070000A507088889070000AD07008891071000A50717047A0102E4010B51446024606480B46C0880021FCF741F8012C02D10349DD
:4063C0005420088010BD00004C16002000102E40064A11880170090A417091888170090AC1700349542008807047000080142E4000102E400121814010B589B200227C2048
:4064000000F0A4FA10BD0000FEB5FF210120FFF73FFCFF210820FFF73BFC3020FFF750FC3F48802101803F483F4D00784007400F02286FD001286BD10020288000221146FC
:406440000320FCF7ABF8394E3949B08D8882384F002420373248A0300482308F38822046FFF754FE641C2406240EF3D0B08F38832E48103000F052F97169306901910090FB
:4064800069464879C021084369464871684600F06DF900F055F82548214C40304188A03421838188A1831E49C088C0318880708E38802048002606823920FFF727FC184F92
:4064C000532038801C490720088354203880E020FFF78AFCE820FFF787FCF020FFF784FC0020FDF7E5FF13488682282101838015A0810F48403086815B2038800948007803
:406500004007400F022807D0012801D10B482880FEBDFFE7032090E70848C01CF7E7000000102E404C160020001F2E4018150020C0112E40001A2E4080142E40E0230000E3
:40654000044800218183018302497420603908807047000060102E40074B1882064B6033988B00090001084399158843002A01D11021484098837047A0102E40F3B50D2254
:4065800084B0920100924A780B78120213430393CA788B78120213434A790979FF20120211431A4A8C46918B9E460291118B01911649742260390A80154900220F7821E0AB
:4065C0000121124B9140009C603BE3181D8889B21C881B88039E6E407546654064462E435C4026430CD1029B194209D00199D140CB070499DB0F8B4202D1104606B0F0BD18
:40660000521CD2B29742DBD8F8E7000060102E405815002030B50949FF208C8B084A00210125137805E02A468A40224204D0491CC9B28B42F7D830BD084630BD60102E4028
:406640005815002010B50446E020FFF7CDFB20782246401CC3B20021E020FBF7AFFE10BD42790021012A02D901214171090342790A430179042914D049001143827B032A46
:4066800001D8D2001143427B52010A43817909021143012252031143054A118300889083704711460122920211430222E5E7000000102E4000B50120FFF702FB01494120E0
:4066C000088000BD00102E4000B50120FFF71EFB01494020088000BD00102E40024A10820148603081817047A0102E4010B5044C208204488180028183815143018210BD88
:40670000A0102E40A0132E40034B1882024820388180028070470000A0102E404178027809020A4306490A80C2788378120213438B8042790079120210430881704700004F
:40674000C0112E404178027809020A4306490A81C2788378120213438B81427900791202104308827047000060102E40417802780902084B0A431A83C178827809020A430A
:406780009A8341790079090208430249203108807047000040102E404178027809020A4306498A80C2788378120213430B814279007912021043888170470000001F2E40A3
:4067C00010B50446E820FFF70FFB20782246401CC3B20021E820FBF7F1FD10BD024A10820248818370470000A0102E40001A2E40024A10820148603081807047A0102E40C5
:4068000010B5044688000521FAF70CFD04490C8204498880200202497230A039088010BDA0102E40001A2E4003490882000202497330A03908807047A0102E4003490882BC
:40684000000202497030A03908807047A0102E4003490882000202497130A03908807047A0102E40F8B505461C4617460E46084600F090F8054AB90021431582034AA03A00
:4068800080180180024880194455F8BDA0102E40770D0020034A118B8905890D8002084310837047A0102E4030B50E4C238A01251A46012804D0022804D000290BD00CE02D
:4068C0002A430AE0002908D12A4322825008400020821A4601E05A0852009A4200D0228230BD0000001A2E40054A1082044A6032908B402398438901014391837047000087
:40690000A0102E40044A118A0223002801D0194300E0994311827047001A2E4000B5064A1082054860300181002901D0012000E00020FFF7E7FF00BDA0102E40024A80189C
:4069400002880A430280704700102E4070B5084BC5182C880023080003D104E040085B1C9BB2C607FAD08C439A4022432A8070BD00102E40024A1018405C8007800F7047BA
:40698000770D0020024908820148803080897047A0102E408000FF3041307047044B02461B8AFF208B4202D902484018805C70474C160020720D0020024908820148803089
:4069C00000897047A0102E40174902460B680020002B08D10A605207520F012A04D0022A10D0086012207047112292018A80CA80032252020A810122D2024A8140228A812D
:406A000005220DE0092252028A80CA80012252030A810322D2024A81012252028A810422CA810A82704700004C1600200A4600B501461046FFF7B2FF00BD38B50C46054660
:406A400000216846009109F0BFFD002804D1009928464C7000F0FEFB38BD10B5044680780021FFF73BFE01212046FFF7DBF810BD436E002B0CD00B60014660318B7813706D
:406A8000826E4266CA788A700021816608467047FF20704710B50346446E6033002C04D0846E002C04D0FF2010BD41669A7001E08166DA70002010BD0021416681667047D8
:406AC000406E002801D000207047FF20704770B50446C0790D46810610D5DF210840E07100F0CAFE0570218941804034218A8180618AC180A18A018101F0FAFB70BD00009E
:406B000010B50446FEF74EFE01280AD1A1789020054A484380186030007FFDF73DF9012801D000F0FBFA10BD60150020F8B50E460446FCF759FF01282BD02079042801D0FC
:406B4000072825D1F079B77900020743A0783946FFF7F2FA25464035012820D03A46711C204600F088FA02212046FDF718FEA07DC107C90F0220FFF797FE688A002807D0C6
:406B8000E87E002804D1032109020820FFF7A4F8F8BD01222421204600F014FBF8BD282028732046FEF760F9F8BD70B50D460646FDF78AFD002852D120213046FDF75BFA7C
:406BC0003446687840346073E87820220002E081A9780843E0816879010228790843218A814203D0F1791143F1712082E8790102A8790843618A814203D0F1791143F171DE
:406C00006082687A0102287A0843A18AE180814203D0F1791143F171A082A08A218A8000FAF700FB401E618A80B2814200D9608201213046FDF7B6FDE87AA97A00020143F8
:406C40000022304600F02EFB608A002807D0E07E002804D1032109020820FFF73DF870BDF8B50C4605460027FCF7BEFE012847D0284EB07AC00709D02846403000900078EA
:406C8000002806D0102803D01F212CE01A212AE001272846FEF7ECF9002823D02E4680360822611C7068FAF7E8FB7068617A20300172A17A417270682146183008220B3101
:406CC000FAF7DBFB21462846042213313430FAF7D4FB39462846FDF77BFF002810D1002F0FD012E007210322284600F06BFAF28A08212846FDF7B4F911212846FDF755FD5C
:406D0000F8BD06212846FDF753FD009801210176F8BD00001815002010B5FDF799FF10BD38B504460020009020790D46032803D0042801D007281BD12046FCF755FE0128B6
:406D400017D0684609F040FC002811D10C486A78807A00991040F12210402075607E082210436076204600F0B5F92046FDF763FD38BD08222421204600F024FA38BD000072
:406D80001815002070470000F3B581B004460298FEF718F806462046FEF7F9FC002828D0162E04D32046029900F0F7F821E025464035287800220300FAF76CFD0E1414140C
:406DC0000808141414080808080808140298154B017800201F5C8F4204D0401C0728F9D3002A0AD00F49B00008310A58204602999047029809F038FCFEBDA078FFF71EFDCF
:406E0000002301223D212046FDF760FE3D2028732046FFF722FE029809F026FC2046FEF76EF8FEBD1C31010070B50D460021002801D0002400E00C4C002C14D0204640302F
:406E4000C177807F032802D12046FEF7E5FD2046FFF756FE162D04D20449A800095820468847FEF701FD70BD801500207C31010010B5014640310C4609780E2903D1FDF77A
:406E80002BFF0120207610BD10B54021095C0F2901D1FDF744FF10BD4021095C0F2902D1002120304177704738B5044600220E4800920D46807AF1210840C0060ED52046E3
:406EC000FEF776FC012809D0684609F07DFB002803D12046009900F05FF938BD2946204600F05BF838BD00001815002010B51021FDF7C1F810BD10B54978FDF739FE10BD8A
:406F000010B5FDF714FF10BD012120304177704710B54021095C0C2901D1FDF71DFF10BD10B54021095C0D2901D1FDF711FF10BD70B5044600790D46052803D0062801D0CA
:406F4000082802D12046FDF725FE68784C21085509212046FDF72CFC2046FFF77EFD2046FCF742FD0128A07805D0FFF767FC2046FEF73EFE70BDFFF76BFCF8E710B504464E
:406F8000FF21FDF778F816214C200155A078FFF755FC2046FEF72CFE10BD70B50C460546FEF700FC002802D02078687570BD21782846FFF742FD70BD70B5054648780C4669
:406FC000032802D12846FDF7F0FD6078122803D110212846FDF74FF803482146006842682846904770BD0000AC0D0020704738B5044600200D46009004212046FDF73BF8D2
:4070000068782076E8780002A081A9780843A08168790002E08129790843E081607E04210843607680070CD4684609F0CDFA00281ED12046009900F01BF9607E02210843D9
:407040006076E079410613D5BF210840E07100F013FC00210090017021894180A1898180217E4170E189C18001F04CFAFEF7FCFB38BD7047704770B50446C07815460A46AF
:4070800000280AD00020E070C1B2A078FFF786F8A0782946FFF73CF970BD0120F3E770B50546042008700C468420415908222031601CFAF7E2F92946204604223831093089
:4070C000FAF7DBF90D2229462046FEF725FD002070BD000070B5054609200C46087008220021601CFAF7D2F9287D607004480922C07AA07029462046FEF70EFD002070BD25
:40710000181500200B4610B501460B20187001221846FEF701FD002010BD0000FEB50024164F03E0002C01D0002500E03D462846FFF7C6FC00281BD15F20405D002817D187
:407140006A4601A92846FFF793FC002810D1019869460A7806782946FEF7DEFC022E07D1A8780121FFF7C0FB09212846FDF720FB641C2406240ED5D0FEBD000080150020A0
:4071800010B50B46122119708178D977014601221846FEF7C1FC10BD10B50B46132119708178D97706490989C90603D1C18A40221143C182014601221846FEF7ADFC10BD56
:4071C00020112E4038B50546002000900C46684609F0FAF9002801D0072038BD00980D210170447002222946FEF796FC002038BD0B4610B501460520187001221846FEF76D
:407200008BFC002010BD0B4610B501460620187001221846FEF780FC002010BD38B5054600200090684609F0CFF9002801D01F2038BD009C022020704C20405D6070A87825
